:020000040800F2
:100000000807002089010008970C0008D10B0008A0
:10001000950C00088F020008AD0D000800000000DC
:100020000000000000000000000000009B0C000821
:100030009102000800000000990C00089D0C0008C7
:10004000A3010008A3010008A3010008A301000800
:10005000A3010008A3010008A3010008A3010008F0
:10006000A3010008A3010008A3010008A3010008E0
:10007000A3010008A3010008A3010008A3010008D0
:10008000A3010008A3010008A3010008A3010008C0
:10009000A3010008A3010008A3010008A3010008B0
:1000A000A3010008A3010008A3010008A3010008A0
:1000B000A3010008A301000800000000A30100083C
:1000C000A30100080000000000000000A3010008D8
:1000D00000000000A3010008A301000800000000C8
:1000E000A3010008A3010008A301000800F002F822
:1000F00000F03AF80AA090E8000C82448344AAF188
:100100000107DA4501D100F02FF8AFF2090EBAE885
:100110000F0013F0010F18BFFB1A43F0010318473B
:10012000F40C0000140D0000103A24BF78C878C108
:10013000FAD8520724BF30C830C144BF04680C60ED
:10014000704700000023002400250026103A28BF35
:1001500078C1FBD8520728BF30C148BF0B60704739
:100160001FB51FBD10B510BD00F058F81146FFF7C0
:10017000F7FF00F02CFE00F076F803B4FFF7F2FF73
:1001800003BC00F07DF8000009488047094800479B
:10019000FEE7FEE7FEE7FEE7FEE7FEE7FEE7FEE737
:1001A000FEE7FEE704480549054A064B7047000094
:1001B000F10C0008ED0000080801002008070020ED
:1001C00008030020080300204FF0000200B513468A
:1001D00094469646203922BFA0E80C50A0E80C5067
:1001E000B1F12001BFF4F7AF090728BFA0E80C5018
:1001F00048BF0CC05DF804EB890028BF40F8042B11
:1002000008BF704748BF20F8022B11F0804F18BF7D
:1002100000F8012B7047704770477047754600F033
:100220002BF8AE4605006946534620F00700854688
:1002300018B020B5FFF7B6FFBDE820404FF000062C
:100240004FF000074FF000084FF0000B21F00701BE
:10025000AC46ACE8C009ACE8C009ACE8C009ACE801
:10026000C0098D46704710B50446AFF300802046A4
:10027000BDE81040FFF781BF00487047A80000208C
:1002800001491820ABBEFEE7260002007047FEE7DA
:10029000704772B6FEE710B5040002D0607910B165
:1002A00006E0012010BD00202071204600F004F877
:1002B00001206071002010BD08B500680649884221
:1002C00008D10648416941F040014161406900F0B0
:1002D0004000009008BD00000030024000100240C5
:1002E0002DE9F84FDFF89C910024A9F1040B234677
:1002F0000F2709F1040AABF1040EBBE00125A5406C
:100300002A40AA4276D1DFF880C14E68A6EB0C08DD
:1003100066452BD00DDC032E34D005DC36B3012E20
:1003200019D0022E2FD11BE0112E16D0122E2AD159
:1003300019E0B8F5881F19D006DCB8F5803F15D054
:10034000B8F5801F1FD111E0B8F5001F0ED0B8F529
:10035000041F18D10AE0CB6815E0CB681B1D12E022
:10036000CB6808330FE0CB680C330CE08B682BB103
:10037000012B4FF0080303D0456104E0042302E0A1
:10038000056100E00023FF2A01D8064601E000F1E4
:1003900004064FEA840501D9A5F12005D6F80080AE
:1003A00007FA05FC28EA0C0803FA05F548EA0508EF
:1003B000C6F800804D68ED005BD5344DAE6946F05F
:1003C0000106AE61AD6924F0030605F00105009554
:1003D0002F4D06EB050CDCF80850A607360F07FA80
:1003E00006F825EA0805DFF8AC80404503D14FF058
:1003F000000810E03DE0DFF8A080404502D14FF05A
:10040000010808E0DFF89480404502D14FF002086F
:1004100001E04FF0030808FA06F848EA0508CCF8AE
:1004200008804D68D9F80060ED024D4601D51643AD
:1004300000E096432E604D68DAF80060AD02554644
:1004400001D5164300E096432E604D68DBF800604E
:10045000AD035D4601D5164300E096432E604D681E
:10046000DEF80060ED03754601D5164300E09643C3
:100470002E60641C0A6832FA04F57FF43FAFBDE8D1
:10048000F88F000008040140000011100010024025
:100490000000014000080140000C01400010014034
:1004A0000148806870470000080000200248816809
:1004B000027811448160704708000020074810B599
:1004C000016841F010010160032000F067F80F207F
:1004D00000F006F800F024F8002010BD00200240D3
:1004E00070B50D4D04464FF47A712878B1FBF0F0E9
:1004F0000A490968B1FBF0F000F0CEFA48B9102CB7
:1005000007D200222146501E00F028F800206C601F
:1005100070BD012070BD0000080000201400002004
:100520000C4808B5816941F001018161816901F0E0
:1005300001010091C16941F08051C161C06900F0C1
:10054000805000900448416821F0E06141F0007162
:10055000416008BD0010024000000140F0B40E4BA5
:100560001B680C46C3F30223C3F10705042D00D911
:100570000425191D072901D2002300E0DB1E0126F6
:1005800006FA05F1491E214099409E40761E16400C
:100590003143F0BC00F00BBC0CED00E0064900F06C
:1005A000070208684FF6FF03184040EA0220034A9A
:1005B00010430860704700000CED00E00000FA05F1
:1005C0002DE9F0470F46050061D0434E306800F03A
:1005D0000700B84209D2306820F007003843306085
:1005E000306800F00700B84251D128683B4C8107C1
:1005F00012D5400703D5606840F4E0606060287859
:10060000000703D5606840F4605060606068A968C6
:1006100020F0F000084360602878C00728D06868A0
:10062000012810D02168022810D0890700292EDA6D
:10063000616821F0030101436160FFF731FF8046EB
:1006400041F288390DE021688903EFE78901EDE780
:10065000FFF726FFA0EB0801494502D90320BDE8BA
:10066000F0876068696800F00C00B0EB810FEFD193
:10067000306800F00700B8420BD9306820F007005E
:1006800038433060306800F00700B84201D00120E4
:10069000E5E72878400705D56068E96820F4E06060
:1006A000084360602878000706D56068296920F44F
:1006B000605040EAC100606000F038F86168084AA4
:1006C000C1F30311515CC840064908600648006840
:1006D000FFF706FF0020C2E70020024000100240A2
:1006E000FA0D0008140000200C0000200448054901
:1006F00000684968044AC1F30221515CC840704750
:1007000014000020001002400A0E000804480549A9
:1007100000684968044AC1F3C221515CC84070476F
:1007200014000020001002400A0E00080E4A516812
:100730000E4801F00C03042B11D0082B0FD10C48EC
:10074000C1F38343C903C05C0AD55168084AC1F3A9
:100750004041921E515C054A5043B0FBF1F0704796
:1007600004494843704700000010024000127A001C
:10077000EA0D000800093D002DE9F84F040070D093
:100780002078C04DC00749D06868C0F381000128B7
:1007900007D06868C0F38100022809D16868C003E7
:1007A00006D52868800339D560680028E7D035E091
:1007B0006068B0F5803F0BD010B1B0F5A02F11D01C
:1007C000286820F480302860286820F4802002E027
:1007D000286840F480302860606890B1FFF760FEC0
:1007E00006460AE0286840F480202860F0E700BF51
:1007F000FFF756FE801B642873D828688003F7D55E
:100800000CE0FFF74DFE064605E000BFFFF748FE8F
:10081000801B6428F0D828688003F7D420789A4E8B
:1008200080074FF001094FF0000839D5686810F0D3
:100830000C0F07D06868C0F38100022809D16868EE
:10084000C00306D42868800714D52069012808D180
:1008500010E02069B0B1C6F80090FFF721FE07460E
:1008600005E00AE1FFF71CFEC01B0228C4D8286877
:100870008007F7D52868616920F0F80040EAC100D8
:1008800028600DE0C6F80080FFF70AFE074604E086
:10089000FFF706FEC01B022823D828688007F7D47C
:1008A000207800072CD57948A169D9B1C0F800900B
:1008B000FFF7F6FD074604E0FFF7F2FDC01B022834
:1008C0000FD8686A8007F7D571484FF4FA5100686D
:1008D000B0FBF1F0009000BF0098411E0091FAD2E9
:1008E0000EE080E0C0F80080FFF7DAFD074604E084
:1008F000FFF7D6FDC01B022875D8686A8007F7D4B9
:100900002078400760D5E8690027C00008D4E8696E
:1009100040F08050E861E869012700F080500090C5
:100920005C480168C90513D40168834641F48071AD
:100930000160FFF7B5FD824606E000BFFFF7B0FD9E
:10094000A0EB0A0064284ED8DBF80000C005F5D5FE
:10095000E06801280AD008B1052813D0286A20F0E1
:1009600001002862286A20F0040002E0286A40F0B2
:1009700001002862E06841F2883B98B1FFF790FDE2
:1009800082460BE0286A40F004002862EEE700BFD0
:10099000FFF786FDA0EB0A0159455AD8286A80075F
:1009A000F6D50CE0FFF77CFD824605E0FFF778FD09
:1009B000A0EB0A0159454CD8286A8007F6D41FB12C
:1009C000E86920F08050E861E06988B36968C1F3A4
:1009D0008101022944D00228C6F8608004D0FFF7C4
:1009E0005FFD044638E034E0FFF75AFD074604E0B7
:1009F000FFF756FDC01B02282BD828688001F7D4CA
:100A0000206AB0F5803F05D16868A16820F4003005
:100A100008436860D4E908010843696821F4741147
:100A200008436860C6F86090FFF73AFD044606E0A8
:100A300025E000BFFFF734FD001B022809D8286815
:100A40008001F7D51BE000BFFFF72AFD001B02283D
:100A500002D90320BDE8F88F28688001F4D40EE0A5
:100A60000128F7D06868226A00F48031914204D1ED
:100A7000616A00F47010884201D00120EAE700208A
:100A8000E8E70000001002400000424280044242B9
:100A9000140000200070004010B5401EB0F1807FAF
:100AA00001D3012010BD4FF0E02460610F216017D9
:100AB00000F07DF90020A06107202061002010BD1A
:100AC00070B5040004D094F84100002510B106E090
:100AD000012070BD84F84050204600F023F8242007
:100AE00084F841002068C16821F40051C1602046AB
:100AF00000F000F92068016921F49041016120684B
:100B0000416921F02A0141612068C16841F4005126
:100B1000C1606564202084F8410084F84200656368
:100B2000002070BD70B586B000240094019402943A
:100B30000394234E0368234902200322224DB3422B
:100B400019D18B6943F480438B618B6903F4804333
:100B500004938B6943F004038B618969039201F06C
:100B6000040104910102CDE9001069462846FFF70F
:100B7000B7FB28151BE0154EB3421FD1CB6943F4D8
:100B80000033CB61CB6903F4003304938B6943F0EA
:100B900004038B618969039201F00401049104212B
:100BA000CDE9001069462846FFF79AFB0820CDE9F9
:100BB0000004694628460294FFF792FB06B070BD18
:100BC000003801400010024000080140004400408D
:100BD000FEE70000074910B5054808600846FFF722
:100BE0005AFB002803D0BDE81040FFF752BB10BDF0
:100BF0000030024000000020094808B5816941F03A
:100C000020018161816901F020010091816941F039
:100C100004018161806900F00400009008BD0000BB
:100C2000001002400C4810B50A4901604FF4E13150
:100C30004160002181600C22C160C0E90412816121
:100C4000C161FFF73DFF002803D0BDE81040FFF76A
:100C500020BB10BD00380140180000200C4810B522
:100C60000A4901604FF4E1314160002181600C22AA
:100C7000C160C0E904128161C161FFF721FF002852
:100C800003D0BDE81040FFF704BB10BD0044004096
:100C900060000020FEE7FEE770477047FFF706BCE4
:100CA00010B590B028216846FFF78EFA14210AA8E3
:100CB000FFF78AFA022000900120049010200024FF
:100CC000059007946846FFF757FD08B172B6FEE736
:100CD0000F20CDE90A040C940D9400210AA80E946B
:100CE000FFF76EFC002801D072B6FEE710B010BD11
:100CF0007047000070B5044600680169E26821F49D
:100D00004051114301612169A068084361690843AA
:100D10002168CA6841F20C639A430243CA602068A2
:100D20004169A26921F44071114341611E49206863
:100D3000884202D1FFF7EAFC01E0FFF7D7FC00EBA5
:100D4000C00101EB0012606864218000B2FBF0F387
:100D5000B3FBF1F36FF018067343B2FBF0F5B2FB8F
:100D6000F0F605EB8305322303EB0515B5FBF1F532
:100D7000B6FBF1F605F0F00505EB0615B2FBF0F653
:100D8000B2FBF0F0B0FBF1F06FF01802504306EB4D
:100D9000800003EB0010B0FBF1F0216800F00F00C1
:100DA0002844886070BD000000380140FEE7090754
:100DB000090E002804DB00F1E02080F800147047E1
:100DC00000F00F0000F1E02080F8141D7047FFF7DD
:100DD00075FBFFF765FFFFF70FFFFFF7FBFEFFF760
:100DE00021FFFFF73BFFFEE70102020304050607B0
:100DF00008090A0B0C0D0E0F101000000000000077
:100E000000000102030406070809000000000102B7
:100E100003040000340E0008000000201800000049
:100E2000280100084C0E000818000020F006000001
:100E30004401000800000000000000000100000064
:0C0E4000100000000000000000127A000A
:04000005080000ED02
:00000001FF
